:020000040800F2
:10000000005000205D8D0008551D0008591D000896
:100010005D1D0008611D0008651D0008000000004E
:10002000000000000000000000000000691D000842
:100030006D1D000800000000711D0008751D0008FE
:10004000A58D0008A58D0008A58D0008A58D0008C8
:10005000A58D0008A58D0008A58D0008A58D0008B8
:10006000A58D0008A58D0008A58D0008791D000844
:10007000A58D0008A58D0008851D0008911D0008AC
:10008000A58D0008A58D0008A58D00089D1D000800
:10009000A91D0008B51D0008C11D0008CD1D0008E0
:1000A000A58D0008D11D0008A58D0008A58D0008AC
:1000B000A58D0008D51D0008D91D0008A58D0008D4
:1000C000A58D0008A58D0008A58D0008A58D000848
:1000D000A58D0008DD1D0008A58D0008A58D000870
:1000E000A58D0008A58D0008A58D00080000000062
:1000F0000000000000000000000000000000000000
:0C01000000000000000000005FF808F1A3
:1001100081F0004102E000BF83F0004330B54FEAB8
:1001200041044FEA430594EA050F08BF90EA020F25
:100130001FBF54EA000C55EA020C7FEA645C7FEAB8
:10014000655C00F0E2804FEA5454D4EB5555B8BFDB
:100150006D420CDD2C4480EA020281EA030382EA4C
:10016000000083EA010180EA020281EA0303362DDE
:1001700088BF30BD11F0004F4FEA01314FF4801CB1
:100180004CEA113102D0404261EB410113F0004FC3
:100190004FEA03334CEA133302D0524263EB43037A
:1001A00094EA050F00F0A780A4F10104D5F1200E18
:1001B0000DDB02FA0EFC22FA05F2801841F1000173
:1001C00003FA0EF2801843FA05F359410EE0A5F147
:1001D00020050EF1200E012A03FA0EFC28BF4CF078
:1001E000020C43FA05F3C01851EBE37101F000452E
:1001F00007D54FF0000EDCF1000C7EEB00006EEB3B
:100200000101B1F5801F1BD3B1F5001F0CD34908C4
:100210005FEA30004FEA3C0C04F101044FEA44521B
:1002200012F5800F80F09A80BCF1004F08BF5FEAA2
:10023000500C50F1000041EB045141EA050130BD82
:100240005FEA4C0C404141EB0101013C28BFB1F594
:10025000801FE9D291F0000F04BF01460020B1FADF
:1002600081F308BF2033A3F10B03B3F120020CDAB2
:100270000C3208DD02F1140CC2F10C0201FA0CF090
:1002800021FA02F10CE002F11402D8BFC2F1200CF5
:1002900001FA02F120FA0CFCDCBF41EA0C019040AB
:1002A000E41AA2BF01EB0451294330BD6FEA0404F4
:1002B0001F3C1CDA0C340EDC04F11404C4F12002DF
:1002C00020FA04F001FA02F340EA030021FA04F3F1
:1002D00045EA030130BDC4F10C04C4F1200220FA48
:1002E00002F001FA04F340EA0300294630BD21FA86
:1002F00004F0294630BD94F0000F83F4801306BF4C
:1003000081F480110134013D4EE77FEA645C18BF3F
:100310007FEA655C29D094EA050F08BF90EA020FD6
:1003200005D054EA000C04BF1946104630BD91EACE
:10033000030F1EBF0021002030BD5FEA545C05D1D1
:100340004000494128BF41F0004130BD14F5800410
:100350003CBF01F5801130BD01F0004545F0FE4184
:1003600041F470014FF0000030BD7FEA645C1ABFB9
:10037000194610467FEA655C1CBF0B46024650EAF0
:10038000013406BF52EA033591EA030F41F400211C
:1003900030BD00BF90F0000F04BF0021704730B5A2
:1003A0004FF4806404F132044FF000054FF0000177
:1003B00050E700BF90F0000F04BF0021704730B538
:1003C0004FF4806404F1320410F0004548BF40420D
:1003D0004FF000013EE700BF42004FEAE2014FEA62
:1003E00031014FEA02701FBF12F07F4393F07F4F3D
:1003F00081F06051704732F07F4208BF704793F040
:100400007F4F04BF41F40021704730B54FF4607452
:1004100001F0004521F000411CE700BF50EA010255
:1004200008BF704730B54FF000050AE050EA0102FE
:1004300008BF704730B511F0004502D5404261EB6E
:1004400041014FF4806404F132045FEA915C3FF4AF
:10045000D8AE4FF003025FEADC0C18BF03325FEA4C
:10046000DC0C18BF033202EBDC02C2F1200300FAFD
:1004700003FC20FA02F001FA03FE40EA0E0021FA22
:1004800002F11444BDE600BF70B54FF0FF0C4CF410
:10049000E06C1CEA11541DBF1CEA135594EA0C0FC2
:1004A00095EA0C0F00F0DEF82C4481EA030621EAFD
:1004B0004C5123EA4C5350EA013518BF52EA033538
:1004C00041F4801143F4801338D0A0FB02CE4FF0EA
:1004D0000005E1FB02E506F00042E0FB03E54FF01A
:1004E0000006E1FB03569CF0000F18BF4EF0010E12
:1004F000A4F1FF04B6F5007F64F5407404D25FEA0E
:100500004E0E6D4146EB060642EAC62141EA5551C0
:100510004FEAC52040EA5E504FEACE2EB4F1FD0C02
:1005200088BFBCF5E06F1ED8BEF1004F08BF5FEA80
:10053000500E50F1000041EB045170BD06F0004632
:1005400046EA010140EA020081EA0301B4EB5C04DF
:10055000C2BFD4EB0C0541EA045170BD41F48011D7
:100560004FF0000E013C00F3AB8014F1360FDEBFFC
:10057000002001F0004170BDC4F10004203C35DAD8
:100580000C341BDC04F11404C4F1200500FA05F35B
:1005900020FA04F001FA05F240EA020001F00042FC
:1005A00021F0004110EBD37021FA04F642EB060172
:1005B0005EEA430E08BF20EAD37070BDC4F10C049C
:1005C000C4F1200500FA04F320FA05F001FA04F260
:1005D00040EA020001F0004110EBD37041F100014C
:1005E0005EEA430E08BF20EAD37070BDC4F1200557
:1005F00000FA05F24EEA020E20FA04F301FA05F2BF
:1006000043EA020321FA04F001F0004121FA04F266
:1006100020EA020000EBD3705EEA430E08BF20EA36
:10062000D37070BD94F0000F0FD101F00046400070
:1006300041EB010111F4801F08BF013CF7D041EAF2
:10064000060195F0000F18BF704703F000465200F6
:1006500043EB030313F4801F08BF013DF7D043EAC7
:100660000603704794EA0C0F0CEA135518BF95EA7D
:100670000C0F0CD050EA410618BF52EA4306D1D104
:1006800081EA030101F000414FF0000070BD50EA23
:10069000410606BF1046194652EA430619D094EAAD
:1006A0000C0F02D150EA013613D195EA0C0F05D197
:1006B00052EA03361CBF104619460AD181EA0301EB
:1006C00001F0004141F0FE4141F470014FF00000A3
:1006D00070BD41F0FE4141F4780170BD70B54FF03E
:1006E000FF0C4CF4E06C1CEA11541DBF1CEA1355BE
:1006F00094EA0C0F95EA0C0F00F0A7F8A4EB0504A0
:1007000081EA030E52EA03354FEA013100F0888096
:100710004FEA03334FF0805545EA131343EA12635F
:100720004FEA022245EA111545EA10654FEA002614
:100730000EF000419D4208BF964244F1FD0404F5CD
:10074000407402D25B084FEA3202B61A65EB030529
:100750005B084FEA32024FF480104FF4002CB6EBE6
:10076000020E75EB030E22BFB61A754640EA0C0066
:100770005B084FEA3202B6EB020E75EB030E22BFA6
:10078000B61A754640EA5C005B084FEA3202B6EBE7
:10079000020E75EB030E22BFB61A754640EA9C00A6
:1007A0005B084FEA3202B6EB020E75EB030E22BF76
:1007B000B61A754640EADC0055EA060E18D04FEA34
:1007C000051545EA16754FEA06164FEAC30343EAD4
:1007D00052734FEAC2025FEA1C1CC0D111F4801FA1
:1007E0000BD141EA00014FF000004FF0004CB6E79A
:1007F00011F4801F04BF01430020B4F1FD0C88BF39
:10080000BCF5E06F3FF6AFAEB5EB030C04BFB6EB43
:10081000020C5FEA500C50F1000041EB045170BD36
:100820000EF0004E4EEA113114EB5C04C2BFD4EB63
:100830000C0541EA045170BD41F480114FF0000EE7
:10084000013C90E645EA060E8DE60CEA135594EA63
:100850000C0F08BF95EA0C0F3FF43BAF94EA0C0F66
:100860000AD150EA01347FF434AF95EA0C0F7FF4DB
:1008700025AF104619462CE795EA0C0F06D152EA2F
:1008800003353FF4FDAE1046194622E750EA410613
:1008900018BF52EA43067FF4C5AE50EA41047FF424
:1008A0000DAF52EA43057FF4EBAE12E74FF0FF3C89
:1008B00006E000BF4FF0010C02E000BF4FF0010C5A
:1008C0004DF804CD4FEA410C7FEA6C5C4FEA430CD3
:1008D00018BF7FEA6C5C1BD001B050EA410C0CBF22
:1008E00052EA430C91EA030F02BF90EA020F002084
:1008F000704710F1000F91EA030F58BF994208BFEB
:1009000090422CBFD8176FEAE37040F001007047A7
:100910004FEA410C7FEA6C5C02D150EA013C07D1FE
:100920004FEA430C7FEA6C5CD6D152EA033CD3D049
:100930005DF8040B704700BF8446104662468C4643
:100940001946634600E000BF01B5FFF7B7FF002876
:1009500048BF10F1000F01BD4DF808EDFFF7F4FF9F
:100960000CBF012000205DF808FB00BF4DF808ED2A
:10097000FFF7EAFF34BF012000205DF808FB00BF4D
:100980004DF808EDFFF7E0FF94BF012000205DF86F
:1009900008FB00BF4DF808EDFFF7CEFF94BF012024
:1009A00000205DF808FB00BF4DF808EDFFF7C4FF1D
:1009B00034BF012000205DF808FB00BF4FEA410C66
:1009C0007FEA6C5C02D150EA013C0AD14FEA430C49
:1009D0007FEA6C5C02D152EA033C02D14FF0000086
:1009E00070474FF0010070474FEA4102B2F1E04317
:1009F00024BFB3F5001CDCF1FE5C0DD901F0004C06
:100A00004FEAC0024CEA5070B2F1004F40EB830055
:100A100008BF20F00100704711F0804F21D113F181
:100A20003872BCBF01F00040704741F480114FEABA
:100A30005252C2F11802C2F1200C10FA0CF320FA43
:100A400002F018BF40F001004FEAC1234FEAD32360
:100A500003FA0CFC40EA0C0023FA02F34FEA4303CA
:100A6000CCE77FEA625307D150EA01331EBF4FF053
:100A7000FE4040F44000704701F0004040F0FE406E
:100A800040F40000704700BF80F0004002E000BF6B
:100A900081F0004142001FBF5FEA410392EA030F69
:100AA0007FEA226C7FEA236C6AD04FEA1262D2EBB3
:100AB0001363C1BFD218414048404140B8BF5B42B8
:100AC000192B88BF704710F0004F40F4000020F051
:100AD0007F4018BF404211F0004F41F4000121F067
:100AE0007F4118BF494292EA030F3FD0A2F10102B1
:100AF00041FA03FC10EB0C00C3F1200301FA03F1EF
:100B000000F0004302D5494260EB4000B0F5000F11
:100B100013D3B0F1807F06D340084FEA310102F1D0
:100B20000102FE2A51D2B1F1004F40EBC25008BF82
:100B300020F0010040EA03007047490040EB00004C
:100B4000013A28BFB0F5000FEDD2B0FA80FCACF14D
:100B5000080CB2EB0C0200FA0CF0AABF00EBC2507A
:100B600052421843BCBFD0401843704792F0000F68
:100B700081F4000106BF80F400000132013BB5E7BB
:100B80004FEA41037FEA226C18BF7FEA236C21D031
:100B900092EA030F04D092F0000F08BF0846704796
:100BA00090EA010F1CBF0020704712F07F4F04D164
:100BB000400028BF40F00040704712F100723CBF77
:100BC00000F50000704700F0004343F0FE4040F4A1
:100BD000000070477FEA226216BF08467FEA23635F
:100BE0000146420206BF5FEA412390EA010F40F44A
:100BF000800070474FF0000304E000BF10F0004396
:100C000048BF40425FEA000C08BF704743F096437C
:100C100001464FF000001CE050EA010208BF704797
:100C20004FF000030AE000BF50EA010208BF70471E
:100C300011F0004302D5404261EB41015FEA010C33
:100C400002BF84460146002043F0B64308BFA3F12B
:100C50008053A3F50003BCFA8CF2083AA3EBC2530D
:100C600010DB01FA02FC634400FA02FCC2F120022C
:100C7000BCF1004F20FA02F243EB020008BF20F063
:100C80000100704702F1200201FA02FCC2F12002C9
:100C900050EA4C0021FA02F243EB020008BF20EABE
:100CA000DC7070474FF0FF0C1CEAD0521EBF1CEAEC
:100CB000D15392EA0C0F93EA0C0F6FD01A4480EADA
:100CC000010C400218BF5FEA41211ED04FF00063C3
:100CD00043EA501043EA5111A0FB01310CF00040EF
:100CE000B1F5000F3EBF490041EAD3715B0040EA15
:100CF000010062F17F02FD2A1DD8B3F1004F40EBE5
:100D0000C25008BF20F00100704790F0000F0CF0B7
:100D1000004C08BF49024CEA502040EA51207F3A7B
:100D2000C2BFD2F1FF0340EAC250704740F4000056
:100D30004FF00003013A5DDC12F1190FDCBF00F047
:100D400000407047C2F10002410021FA02F1C2F1F5
:100D5000200200FA02FC5FEA310040F1000053EA91
:100D60004C0308BF20EADC70704792F0000F00F0DF
:100D7000004C02BF400010F4000F013AF9D040EAE5
:100D80000C0093F0000F01F0004C02BF490011F479
:100D9000000F013BF9D041EA0C018FE70CEAD15377
:100DA00092EA0C0F18BF93EA0C0F0AD030F0004CF7
:100DB00018BF31F0004CD8D180EA010000F00040AB
:100DC000704790F0000F17BF90F0004F084691F069
:100DD000000F91F0004F14D092EA0C0F01D14202A3
:100DE0000FD193EA0C0F03D14B0218BF084608D16C
:100DF00080EA010000F0004040F0FE4040F40000B6
:100E0000704740F0FE4040F4400070474FF0FF0C48
:100E10001CEAD0521EBF1CEAD15392EA0C0F93EA8F
:100E20000C0F69D0A2EB030280EA010C49024FEAE1
:100E3000402037D04FF0805343EA111143EA10139A
:100E40000CF000408B4238BF5B0042F17D024FF452
:100E5000000C8B4224BF5B1A40EA0C00B3EB510F2D
:100E600024BFA3EB510340EA5C00B3EB910F24BF16
:100E7000A3EB910340EA9C00B3EBD10F24BFA3EB9B
:100E8000D10340EADC001B0118BF5FEA1C1CE0D163
:100E9000FD2A3FF650AF8B4240EBC25008BF20F016
:100EA000010070470CF0004C4CEA50207F32C2BF6A
:100EB000D2F1FF0340EAC250704740F400004FF007
:100EC0000003013A37E792F0000F00F0004C02BF38
:100ED000400010F4000F013AF9D040EA0C0093F002
:100EE000000F01F0004C02BF490011F4000F013B5C
:100EF000F9D041EA0C0195E70CEAD15392EA0C0FC4
:100F000008D142027FF47DAF93EA0C0F7FF470AFFB
:100F1000084676E793EA0C0F04D14B023FF44CAF3E
:100F200008466EE730F0004C18BF31F0004CCAD1D3
:100F300030F000427FF45CAF31F000437FF43CAF0F
:100F40005FE700BF4FF0FF3C06E000BF4FF0010C31
:100F500002E000BF4FF0010C4DF804CD4FEA400213
:100F60004FEA41037FEA226C18BF7FEA236C11D05D
:100F700001B052EA530C18BF90EA010F58BFB2EB10
:100F8000030088BFC81738BF6FEAE17018BF40F090
:100F9000010070477FEA226C02D15FEA402C05D144
:100FA0007FEA236CE4D15FEA412CE1D05DF8040BC9
:100FB000704700BF844608466146FFE70FB5FFF75C
:100FC000C9FF002848BF10F1000F0FBD4DF808ED14
:100FD000FFF7F4FF0CBF012000205DF808FB00BF05
:100FE0004DF808EDFFF7EAFF34BF012000205DF85F
:100FF00008FB00BF4DF808EDFFF7E0FF94BF0120AC
:1010000000205DF808FB00BF4DF808EDFFF7D2FFA8
:1010100094BF012000205DF808FB00BF4DF808EDEB
:10102000FFF7C8FF34BF012000205DF808FB00BFB8
:101030004FEA40024FEA41037FEA226C02D15FEAA5
:10104000402C08D17FEA236C02D15FEA412C02D107
:101050004FF0000070474FF0010070474FEA400228
:10106000B2F1FE4F0FD34FF09E03B3EB12620DD9D6
:101070004FEA002343F0004310F0004F23FA02F040
:1010800018BF404270474FF00000704712F1610FE7
:1010900001D1420205D110F0004008BF6FF00040BE
:1010A00070474FF00000704700F1340191E83800BC
:1010B0009C46A6464CF8045D90E8FF0FE54600BD4F
:1010C00090EC210B704700BF80EC210B704700BFF4
:1010D00090EC200B704700BF80EC200B704700BFE6
:1010E000D0EC200B704700BFC0EC200B704700BF56
:1010F000F0EC0201F0EC0211F0EC0221F0EC023114
:10110000F0EC0241F0EC0251F0EC0261F0EC027103
:10111000F0EC0281F0EC0291F0EC02A1F0EC02B1F3
:10112000F0EC02C1F0EC02D1F0EC02E1F0EC02F1E3
:10113000704700BFE0EC0201E0EC0211E0EC02219C
:10114000E0EC0231E0EC0241E0EC0251E0EC026143
:10115000E0EC0271E0EC0281E0EC0291E0EC02A133
:10116000E0EC02B1E0EC02C1E0EC02D1E0EC02E123
:10117000E0EC02F1704700BFB0FC0181B0FC0191CE
:10118000B0FC01A1B0FC01B1704700BFA0FC01811F
:10119000A0FC0191A0FC01A1A0FC01B1704700BF1F
:1011A000EC4600B52DE900502DE9FF1F4FF000037C
:1011B0000CB401A908F040FBDDF840E012B0704724
:1011C000EC4600B52DE900502DE9FF1F4FF000035C
:1011D0000CB401A908F074FBDDF840E012B07047D0
:1011E000EC4600B52DE900502DE9FF1F4FF000033C
:1011F0000CB401A908F086FBDDF840E012B070479E
:10120000EC4600B52DE900502DE9FF1F4FF000031B
:101210000CB401AB08F048FBDDF840E012B07047B9
:10122000EC4600B52DE900502DE9FF1F4FF00003FB
:101230000CB401AA08F0C0FBDDF840E012B0704722
:1012400080EA010C1CF0030F37D110F0030C20F0E2
:10125000030021F0030150F8042B08BF51F8043BB0
:101260000ED08CF0030C6FF07F434FEACC0C23FAC6
:101270000CFC51F8043B42EA0C0243EA0C0300BFA9
:10128000A2F1013C9A4201BF2CEA020C1CF0803F03
:1012900050F8042B51F8043BF2D04FEA02604FEAB9
:1012A0001222012828BFB0EB036F08BF1B0AF4D03D
:1012B00003F0FF03000EC01A704710F0030F0AD0AE
:1012C00010F8012B11F8013B012A28BF9A42F4D0F3
:1012D000A2EB0300704720B450F8042B01F0030583
:1012E00021F0030151F8043B022D27D04ED800BF56
:1012F00022F07F45B5EB132FA2F1013C2CEA020C42
:101300000DD11CF0803C08BF51F8043B0AD185EA9E
:101310000205B5EB036F0CD150F8042BE8E74FEA58
:1013200013235BE03CF07F4C54D10B784FEA1265FD
:1013300054E04FEA126503F0FF034FE04FEA024525
:10134000A2F1013C4FEA15452CEA020CB5EB134F14
:1013500018D11CF0803C08BF51F8043B07D185EA46
:101360000205B5EB034F09D150F8042BE6E75FEA1D
:101370000C4C2FD10B884FEA12452FE04FEA034364
:101380004FEA12454FEA134328E000BF02F0FF0581
:10139000B5EB136FA2F1013C2CEA020C0DD11CF04D
:1013A000803C08BF51F8043B0AD185EA0205B5EB41
:1013B000032F0AD150F8042BE8E74FEA13630DE03E
:1013C00012F0FF0F06D051F8043B4FEA122523F02C
:1013D0007F4303E04FF0000020BC704705F0FF02A0
:1013E00003F0FF00012828BF904204BF2D0A1B0A0A
:1013F000F4D0A2EB000020BC704700BF844641EA55
:10140000000313F0030349D1403A23D30B68036070
:101410004B6843608B688360CB68C3600B69036172
:101420004B6943618B698361CB69C3610B6A03625A
:101430004B6A43628B6A8362CB6AC3620B6B036342
:101440004B6B43638B6B8363CB6BC3634030403127
:10145000403ADBD230320BD30B6803604B684360F9
:101460008B688360CB68C36010301031103AF3D2C0
:101470000C3205D351F8043B40F8043B043AF9D24E
:10148000043208D0D2071CBF11F8013B00F8013B21
:1014900001D30B8803806046704700BF082A13D32E
:1014A0008B07B1D010F00303AED0C3F10403D21AFE
:1014B000DB071CBF11F8013B00F8013BA4D331F856
:1014C000023B20F8023B9FE7043AD9D3013A11F8D6
:1014D000013B00F8013BF9D20B7803704B78437065
:1014E0008B788370604670474FEA410212F5001214
:1014F00015D211D56FF47873B3EB625212D94FEA5B
:10150000C12343F0004343EA505311F0004F23FA44
:1015100002F018BF404270474FF00000704750EA99
:10152000013005D111F0004008BF6FF00040704756
:101530004FF00000704700BF4A0011D212F50012B0
:1015400011D20DD56FF47873B3EB62520ED44FEA1B
:10155000C12343F0004343EA505323FA02F070479B
:101560004FF00000704750EA013002D14FF0FF30D9
:1015700070474FF0000070470348044B834202D08D
:10158000034B03B118477047CC080020CC0800205B
:10159000000000000548064B1B1AD90F01EBA30100
:1015A000491002D0034B03B118477047CC08002004
:1015B000CC0800200000000010B5064C237843B989
:1015C000FFF7DAFF044B13B10448AFF300800123A7
:1015D000237010BDD00800200000000080320108F8
:1015E00008B5054B1BB105490548AFF30080BDE8C0
:1015F0000840FFF7CFBF00BF00000000D408002064
:101600008032010800234FF480714FF460204FF0C6
:10161000010C02222DE90048DFF888E084B0CDE912
:101620000133CEE9013100938EF814301E4BCEF811
:101630001C0070468EF80CC0CEF81020CEF800309A
:1016400002F0AAFE20BB4FF0000B4FF0010C072365
:1016500069461448CDE900BC029302F09DFFE8B949
:101660004FF0010B4FF0020C072369460D48CDE9FE
:1016700000BC029302F090FF68B90A4803F032F907
:1016800002220A49074803F071F804B0BDE8008857
:1016900000F0CCFAD7E700F0C9FAEEE700F0C6FA9E
:1016A000DEE700BF3809002000240140680900205F
:1016B000002300B50168294A89B09142CDE904337D
:1016C000CDE9063301D009B000BD03220323019008
:1016D000234804A9D0F818C04CF4007CC0F818C006
:1016E000D0F818C00CF4007CCDF808C0DDF808C0B4
:1016F000D0F818C04CF0040CC0F818C08069CDE9CF
:10170000042300F0040003900398164804F0D0F876
:101710004FF4807C00234FF4806013494FF0800E1B
:10172000C1E90133C1F810C04FF440534FF0200C11
:1017300048610E48C1E906C308600846C1F80CE0DC
:1017400003F06AFD0849019A18B911624A6209B0AA
:1017500000BD00F06BFA019A0349F6E7002401404E
:101760000010024000080140F0080020080002407C
:1017700008B5214B5888FFF73DFA01461F48FFF78F
:1017800045FB4FF07E51FFF783F91D49FFF78AFAB9
:10179000FEF722FE07F036FC0FA3D3E90023FEF785
:1017A00073FE0FA3D3E90023FEF7B8FC02460B46F5
:1017B0000DA1D1E90001FEF791FFFFF715F9FEF742
:1017C0000BFE0BA3D3E90023FEF7A6FCFFF70CF9F1
:1017D00008BD00BFAFF300800000006066A2724049
:1017E0000000000000FEAA4000000080B86F2F41FA
:1017F00066666666661271406809002000F07F45E3
:10180000C2F5A83E00234FF480204FF0040C4FF4A3
:1018100000114FF4803200B5DFF87CE08BB0CEE9E8
:101820000330CEE901C3AEF81C301C4B7046CEE944
:101830000512CEF8003003F0D1F830BB00230122AE
:101840004FF00E0C69461448CDE90533CDE900335D
:10185000CDE90233CDE9082C0792049303F040F957
:10186000B0B90D4803F0BEF90D490B4803F0D4FAA6
:10187000002208210B480C4B4068C3E90222C3E94F
:10188000000219611A750BB000BD00F0CFF9D5E761
:1018900000F0CCF9E5E700BF9809002000640040A3
:1018A0007F8F030088160020E8090020002200B581
:1018B00001682E4B87B09942CDE90222CDE904227E
:1018C00001D007B000BD4FF4807C03F5D633D96951
:1018D000274841F00071D961D96901F00071009188
:1018E0000099996941F0080199619B6902A903F087
:1018F00008030193CDF808C0019B03F0D9FF4FF412
:1019000000720223CDE90223032302A9184805939C
:1019100003F0CEFF174900224B68132023F4C04385
:1019200043F0E06343F480434B60032103F00CFC7D
:10193000132003F03BFC00220321142003F004FCDD
:10194000142003F033FC00220321152003F0FCFBDC
:10195000152003F02BFC00220321162003F0F4FBDA
:10196000162003F023FC07B000BD00BF0064004058
:10197000000C01400000014008B50A46054B014635
:10198000054803F05DF900B908BDBDE8084000F066
:101990004DB900BFC00900209809002008B50021FA
:1019A0000C4B0D4A03F0ACF940B90B4B0B4A1868CD
:1019B0005268C0F3C711914203D008BD00F036F958
:1019C000F3E71A69034900F07F00BDE8084006F01C
:1019D000EFBD00BFC4090020CC09002088160020FC
:1019E000002200B5124B83B059690B2041F0010170
:1019F00059615B69114603F001030193019B03F0F8
:101A0000A3FB0B2003F0D2FB002203210E2003F0E6
:101A10009BFB0E2003F0CAFB002203210F2003F0E2
:101A200093FB0F2003B05DF804EB03F0BFBB00BFD6
:101A30000010024070B5002488B0CDE90444CDE91F
:101A40000644454B4FF4C0419A69444842F01002A5
:101A50009A619A69012502F010020092009A9A692F
:101A6000022642F020029A619A6902F02002019255
:101A7000019A9A6942F004029A619A6902F004029A
:101A80000292029A9A6942F008029A619B69224680
:101A900003F008030393039B04F022F922463C2140
:101AA0002F4804F01DF9224602212E4804F018F9AF
:101AB00001224FF400412A4804F012F94FF4C043C8
:101AC00004A92648049306940595079603F0F0FEB2
:101AD0003C23CDE90435032304A921480793069448
:101AE00003F0E6FE8022204B04A91D48CDE9042323
:101AF000069403F0DDFE0122002304A91948CDE974
:101B00000423069403F0D4FE04A91648CDE9046525
:101B1000CDE9064603F0CCFE41F20402002304A9FD
:101B20001048CDE90423069503F0C2FE4FF40043AC
:101B300004A90B48049306940595079603F0B8FE94
:101B40004FF4E0620023064804A9CDE9042306957A
:101B500003F0AEFE08B070BD00100240001001405E
:101B600000080140000C01400000311000232DE965
:101B7000104895B04FF0010B4FF4803C0121022436
:101B80004FF48032CDE90C33CDE90F33CDE9063384
:101B9000CDE90833CDE902330593019304934FF463
:101BA00080130AA8CDE90ABC0E91119412921393E6
:101BB00004F09AF808B172B6FEE703460F22CDE9A9
:101BC000064309934FF48063214605A808930592C4
:101BD00004F080FA08B172B6FEE74FF4004301A8A2
:101BE0000194039304F068FB08B172B6FEE715B0E8
:101BF000BDE8108808B502F099FBFFF7B7FFFFF7C3
:101C000019FFFFF7EDFEFFF7FDFC00F03DFBFFF7CE
:101C1000F9FD00F00DF800F08FF900F013FA00F074
:101C200079FA00F049F906F05BFAFEE772B6FEE7D2
:101C300008B54FF4827C002302210122DFF840E046
:101C40004FF40060CEE901C3CEE904124FF4007CEA
:101C500010210A22CEE90833CEF82830094BCEF8FD
:101C60000C007046CEE906C1CEF80030CEF82C202C
:101C700004F072FC00B908BDBDE80840FFF7D6BF0C
:101C8000000A002000300140002310B501681D4A01
:101C900086B09142CDE90233CDE9043301D006B0DC
:101CA00010BD02F560429169282341F48051916191
:101CB0009169022401F480510091009991691248C0
:101CC00041F0080191619269CDE9023402F0080205
:101CD00001920322019902A90592002403F0E8FD74
:101CE0001023CDE902340023074802A9049303F02E
:101CF000DFFD064A536843F0E06343F0010353609D
:101D000006B010BD00300140000C01400000014051
:101D10000E4B82B09A690E4942F001029A619A69AB
:101D200002F001020092009ADA6942F08052DA6110
:101D3000DB6903F080530193019B4B6823F0E06360
:101D400043F000734B6002B0704700BF00100240C8
:101D500000000140FEE700BFFEE700BFFEE700BF56
:101D6000FEE700BFFEE700BF704700BF704700BF3F
:101D7000704700BF02F0ECBA014803F035BB00BF6A
:101D8000F0080020014803F02FBB00BF800B0020AB
:101D9000014803F029BB00BFC80B0020014803F035
:101DA00065B800BF98090020014803F05FB800BF84
:101DB00098090020014803F059B800BF9809002095
:101DC000014803F053B800BF98090020704700BFD6
:101DD00006F08EBA704700BF06F0D0BA194B1A68E9
:101DE0001168C90602D4174805F078BD18460023CB
:101DF00010B582B001931168134C019152680192A1
:101E0000019A05F043FC6FF07F0210491048096801
:101E1000036849680F48521A22702178984722783F
:101E200000210C480AF0A8F84FF00003802209496D
:101E30000448237005F0D6FB024802B0BDE810400C
:101E400005F04CBD100C0020D80C0020C80B002061
:101E5000540C0020580C00200120704708B50AF0EF
:101E6000FDF9162203464FF0FF301A6008BD00BF8F
:101E700008B50AF0F3F916230360FEE708B50B4A2C
:101E80000B491368002B08BF0B466946184488426B
:101E9000136002D81060184608BD0AF0DFF90C2262
:101EA0004FF0FF330260184608BD00BF580A0020FB
:101EB000D8190020704700BF002342F20F7147205D
:101EC000802200B5DFF868C087B0CDE90333CCE9E4
:101ED0000231CCE904330293009305930193154B2F
:101EE000CCF804006046CCF81820CCF8003004F0A0
:101EF000E7FC90B94FF480530D4802A9029305F016
:101F000071F888B90022002369460948CDE9002309
:101F100005F096F920B907B000BDFFF787FEE9E7A5
:101F2000FFF784FE07B000BDFFF780FEEAE700BFC1
:101F3000380B0020002C014000234FF0804140F27C
:101F4000FF322DE910483C4C91B02046C4E90133E2
:101F5000CDE90933CDE90B33CDE90D33216002938F
:101F60000893E2602361A361039304F041FD00281C
:101F700031D100220023304802A9CDE9022305F027
:101F80005FF988BB00234FF0600B4FF0000C082274
:101F9000294808A9CDE908BC0A930C9304F00CFF6A
:101FA000F8B90C22244808A904F006FFB0B90821AA
:101FB000214804F08BFD0C211F4804F087FD00230D
:101FC0002268CDE90433B2F1804FCDE906330ED05B
:101FD00011B0BDE81088FFF729FECAE7FFF726FE1B
:101FE000E5E7FFF723FEDCE7FFF720FECAE74FF047
:101FF000020C4FF4406B032403F1804303F50433D8
:102000009A690E4842F008029A619B6904A903F09C
:1020100008030193019BCDE904BC079403F048FC3D
:10202000074A536823F4407343F0E06343F40073BA
:10203000536011B0BDE81088EC0A0020000C01408C
:1020400000000140002347214FF6FF722DE90048B0
:10205000DFF8B8C02E488CB0CCF800006046CDE95F
:102060000733CDE90933CDE90333CCF80410CCF8BC
:102070000C20069300930293CCF80830CCF8103073
:10208000CCF818300193059304F01AFC40BB1F48AC
:1020900004F072FD58BB00234FF0040B4FF0500CBE
:1020A0001A4806A9CDE906BC08930A9305F04CF836
:1020B00040BB0022002369461448CDE9002305F007
:1020C000BFF8E0B900220123104802A9CDE902239C
:1020D000CDE9042204F0BEFD60B90CB0BDE8008873
:1020E000FFF7A4FD094804F047FD0028D3D0FFF70F
:1020F0009DFDD0E7FFF79AFD0CB0BDE80088FFF723
:1021000095FDDFE7FFF792FDD3E700BFA40A0020AB
:1021100000040040002331214720802200B5DFF871
:1021200068C087B0CDE90333CCE902310293009354
:10213000CCF8103005930193144BCCF804006046A2
:10214000CCF81820CCF8003004F0BAFB90B94FF46A
:1021500080530D4802A9029304F044FF88B900227D
:10216000002369460848CDE9002305F069F820B945
:1021700007B000BDFFF75AFDE9E7FFF757FD07B0CD
:1021800000BDFFF753FDEAE75C0A002000080040AD
:10219000002200B503682D4989B08B42CDE90422A5
:1021A000CDE9062207D02A498B4217D029498B4214
:1021B00039D009B000BD284B0521986940F4006072
:1021C00098619B69192003F400630093009B02F05F
:1021D000BBFF192002F0EAFF09B000BD4FF0400C30
:1021E0001D4B04A9D86940F00200D861D86900F0FD
:1021F000020001900198986940F0040098619B6981
:10220000164803F004030293029BCDF810C003F0BC
:102210004FFB00221D20114602F096FF1D2002F008
:10222000C5FF09B000BD0C4B1146D86940F0040051
:10223000D861DB691E2003F004030393039B02F0C3
:1022400083FF1E2002F0B2FF09B000BD002C014048
:102250000004004000080040001002400008014057
:102260000368B3F1804F00D0704703F50433DA6997
:1022700082B042F00102DA61DB6903F001030193ED
:10228000019B02B0704700BF00234FF4E1310C22E4
:1022900010B51148114C20602046C4E90113C4E96F
:1022A0000333C4E90523E36104F0FEFF88B9226823
:1022B0000A48D3680A4C43F01003D36005F044FD8C
:1022C000084B80221C6008490448BDE8104005F016
:1022D00089B9FFF7ABFCEAE700380140100C002099
:1022E000458C0008540C0020580C0020002310B529
:1022F00001683E4A86B09142CDE90233CDE904330C
:1023000001D006B010BD02F558429169044641F46F
:10231000804191619169402001F4804100910099D0
:10232000916941F0080191619269022102F008026D
:102330000192019A0322CDE902012D4802A90592DA
:1023400003F0B6FA80220023CDE9022300232848B7
:1023500002A9049303F0ACFA2648002341684FF029
:10236000800C41F0E06141F0040141604FF4805184
:10237000214A00F58030583010601046C2E9013320
:10238000C2E904339361C2F80CC0D16102F044FF8A
:10239000194A18BB002180204FF0100CA263546230
:1023A0004FF48052154BC3E90210C3E9041199613F
:1023B00013491846C3F804C01960DA6102F02CFF13
:1023C0000E4B78B900220321636325205C6202F082
:1023D000BBFE252002F0EAFE06B010BDFFF726FC8A
:1023E000054AD7E7FFF722FC044BEBE70038014032
:1023F000000C014000000140C80B0020800B0020B1
:1024000044000240704700BF704700BF704700BFE4
:10241000704700BF704700BF0368DFF80CC0DB697E
:10242000634500D1704718470D2400080368DFF8A2
:1024300038C05969614504D19B690C498B420CD164
:10244000704700B583B001908847019A0749136827
:102450009B698B4202D103B000BD1847104603B000
:102460005DF804EB184700BF0524000809240008A4
:102470000022036870B515491D6904468D42C2816A
:1024800002810CD1DD6912498D4208D11D6A114AC1
:1024900095420BD15B6A104A934210D170BD114630
:1024A000A84723680B4A1D6A9542F3D001222046B3
:1024B0001146A8472368084A5B6A9342EED001227E
:1024C0002046BDE870401146184700BF1924000897
:1024D0000D240008112400081524000800220368B8
:1024E00070B515491D6904468D42C28102810CD127
:1024F000DD6912498D4208D11D6A114A95420BD1FE
:102500005B6A104A934210D170BD1146A8472368F8
:102510000B4A1D6A9542F3D0002220461146A84777
:102520002368084A5B6A9342EED000222046BDE849
:1025300070401146184700BF192400080D240008F8
:10254000112400081524000870B541F2DB36434D14
:10255000C1F3090182EAE27C35F91130ACEBE27C8F
:1025600001F58072C2F3090235F91250428183EA03
:10257000E372A2EBE372C38006FB0CF3818085EA71
:10258000E571A1EBE571C3F30B3392B289B203FBA2
:1025900002F203FB01F1D0F800C0DFF8C4E0DCF880
:1025A0001060C2F30F32C1F30F31764504468581C6
:1025B0000281C18139D1DCF81C302A4EB34247D1A7
:1025C000002DDCF82030284A14DD934239D1B4F9CB
:1025D0000620DCF82430002A244A02DD93422AD166
:1025E00070BD11D09342FBD02046BDE8704001225F
:1025F0000021184710D09342E9D001220021204643
:102600009847D4F800C0E2E79342E9D0012220467F
:10261000BDE87040114618479342D8D001222046A9
:1026200011469847D4F800C0D1E7B047B4F90C5030
:10263000D4F800C0C4E72046BDE870400022012164
:1026400018470022012120469847D4F800C0BEE771
:102650009847B4F90C50D4F800C0B1E7E43201084F
:10266000192400080D24000811240008152400086E
:102670000023C0E903317047D0F810C0A1EB0C0370
:10268000002B02D101610160704700B5D0E9023230
:10269000D0F804E0DEF800E011DD134493FBFEF215
:1026A0000EFB1233BCF1000F6244C0E9033215DBAC
:1026B00091421BDC00230160C0E9033100BDD21A46
:1026C00092FBFEF30EFB1322BCF1000F6344C0E942
:1026D00003230DDD002B03DD194605E0002A05DB91
:1026E00000231946C0E90333016000BD1146FBE732
:1026F0009942DFDAF0E700BF816070470023C0E94C
:1027000003317047D0F810C0A1EB0C03002B02D1AD
:1027100001610160704700B5D0E90232D0F804E0F1
:10272000DEF800E011DD134493FBFEF20EFB1233E2
:10273000BCF1000F6244C0E9033215DB91421BDC9F
:1027400000230160C0E9033100BDD21A92FBFEF301
:102750000EFB1322BCF1000F6344C0E903230DDD1F
:10276000002B03DD194605E0002A05DB002319468E
:10277000C0E90333016000BD1146FBE79942DFDA8F
:10278000F0E700BF10B504460846C4E90311FEF7A0
:1027900035FA01464FF07C50FEF738FB606110BD02
:1027A00000238162C0E90823C36170472DE9F0432B
:1027B000866A03468A1B056A876883B016D18169D9
:1027C0004842A8422DDD002D5C6A7DDD1969D8697B
:1027D000401A396890FBF1FC6544002D1D627EDDD6
:1027E00001FB1C002A46D8612C440EE005BB002AE0
:1027F000C0683968DD695C6A4BDD284490FBF1F202
:1028000001FB1200C3E9070214445A6094FBF1F281
:1028100001FB124432449A621A605C6203B0BDE864
:10282000F083A942CFDBC3E9072214463968ECE7FD
:10283000002A37DD002D57DDD7F8B410D1F80C8011
:10284000A84564DB009028460192FEF7D7F9009B6B
:1028500001465C6AFEF726FA009B5969FEF722FAE8
:10286000FEF7FCFB019A009B824240F39480A8454E
:1028700039687ADDDA69D868104490FBF1F77A1983
:1028800090451A6240F3978001FB17001444D86109
:10289000BBE72D1A95FBF1F201FB12551444C3E975
:1028A0000752B2E7002D42DBC0691A693968801A05
:1028B00090FBF1F201FB12002A44002AC3E907024F
:1028C0005C6A1FDD1444A0E71FD0D9691869084469
:1028D000396890FBF1FC6544002D1D6280DB00210E
:1028E000C3E90711396890E7DA6918693968104453
:1028F00090FBF1F201FB12002A44002AC3E907020F
:102900005C6ADFDB0022C3E9072239687DE7C06922
:102910001A693968801A90FBF1F201FB12002A440F
:10292000002AC3E9070230DD5C6A14446DE7D7F87A
:10293000B420D268C2F10008A8459146D4DC0090CA
:1029400028460C46FEF75AF90146FEF7ABF9009B04
:10295000341B5969FEF7A6F9FEF780FBA042009BE5
:1029600006DAA8452EDB5C6A39682A462C444CE717
:10297000DA6918693968104490FBF1F201FB120022
:102980002A44002AC3E90702CEDB0022C3E907225A
:102990005C6A396839E71A69D8693968801A90FB26
:1029A000F1FC0CEB0502002A1A62ABDD01FB1C00F6
:1029B0001444D86129E700204246C3F820804444EB
:1029C000D86122E7D869DA683968801A90FBF1F299
:1029D00001FB12002A449045C3E907025C6AFFF636
:1029E00071AF00204246A4EB0904C3F82080D861EF
:1029F0000BE700BFC0E903114161C261704700BF2E
:102A0000D0F808C0C268C369DCF800C0C3EB831308
:102A100002618A1A0CFB02338269C16013449A1165
:102A200003F03F03C0E90632C0E90012416170477C
:102A30000023C0E90A32C0E90C31436103777047D3
:102A40002DE9F0430E46016A03469142456B8768C3
:102A5000C46A83B03AD04FF00008C3E90826C3F82F
:102A60001480101900930192FEF7C8F8019A81466C
:102A7000101BFEF7C3F801464846FEF713F98146DE
:102A8000701B4000FEF7BAF801464846FEF7BEF953
:102A9000FEF7E4FA009B83F81C8018619A6A396893
:102AA000104490FBF1F201FB12001444C3E90A0444
:102AB0001A6B5C60144494FBF1F201FB12442A444B
:102AC0005A631A601C6303B0BDE8F083416AB142E7
:102AD000C1D141694FF47A709A6900FB02F29142C8
:102AE00007DB01221A77002C0BD19C620024396885
:102AF000DEE77A680A445A611A7F002AF3D118691E
:102B0000CCE7D8689A6A39680DDD121A92FBF1F0A9
:102B100001FB10220444002CC3E90A24C8DC002273
:102B2000C3E90A22E2E7104490FBF1F201FB120034
:102B30001444002CC3E90A04F1DAB9E738B50446B5
:102B4000C268036A806BC4F8B410D0F8B410D2F82D
:102B5000B420D3F8B4300D6952691B69284622614C
:102B60006362C4E90F55FEF749F801464FF07C5007
:102B7000FEF74CF9C822094B606483FB0513ED177F
:102B8000C5EBA315D4F88430D3F8B430A5641B6921
:102B9000C4F89420C4F8883038BD00BFD34D62100B
:102BA00000207047C0F84411704700BFC0F84811BA
:102BB000704700BF0368C26970B5891A1E69B1F514
:102BC000801F84465E6146DC284A9142B8BF1146A8
:102BD0005A6A9C68196104FB012E5868DCF80840A9
:102BE0004FEAAE25CEF3090E626901FB00F0C3F88F
:102BF00024E0D3F81CE09D62AE44BEEB822F9861C6
:102C0000C3F81CE04FEA822502DC6D42AE4527DAAC
:102C1000DD612844DD68891B05FB01F10844B2EB46
:102C2000A02F4FEAA02502DB5242954216DA154644
:102C3000002A1962DD62DCF82810CCF8302011DDA2
:102C400063681944D4F84801BDE8704003685B68C4
:102C5000CCF8541018474FF48011B9E72A46E7E73B
:102C60007546D6E71CBF6368C91AEBE70000F0FFA2
:102C700084460846DCF8281070B5401AB0F5486F55
:102C8000DCF800E062DC3A4B9842B8BF1846CEF858
:102C90004000DCF81C30D21AD211B2F57A6F52DC47
:102CA000344B9A42B8BF1A46DEF83430DEF838406A
:102CB00002FB03F304FB0033DEF83040CEF844207F
:102CC00004FB00F0DEF85440DCF808502344DEF842
:102CD0004C40DE1103F07F03CEF8543033196C6999
:102CE000CEF85860B3EB842FCEF84800CEF84C30C5
:102CF0004FEA842602DC7642B34237DACEF84C60E3
:102D0000DEF83C30304402FB03F31844B4EBA02F50
:102D10004FEAA02202DB6442A2421ADA2246002CC9
:102D2000CEF85030CEF85C20CCF830401ADD6B681D
:102D30001944D5F848012246BDE8704003685B6835
:102D4000CCF8541018474FF47A62ADE74FF448605E
:102D50009DE71446002CCEF85030CEF85C20CCF81D
:102D60003040E4DC1CBF6B68C91AE2E71E46C7E7C7
:102D700080F3FFFF60F0FFFF017170478368DB683D
:102D80000B444363704700BF2DE9F84FD0F808901B
:102D900016460546D9F81C000C46FDF72FFF3146B4
:102DA0008346FDF77FFF6B69D9F80C70E31A3B444B
:102DB000804683EAE370A0EBE370FDF71FFF4FF05E
:102DC0007A5182463046FDF76DFF4146FDF76AFFB6
:102DD000014650463C44FEF721F938B11B4B002018
:102DE0005B69C9F818306C63BDE8F88F314630462E
:102DF000FDF758FF4FF0814106465046FDF752FF60
:102E00005946FEF703F801463046FDF741FE002122
:102E10000646FEF7F9F8B8B1304606F029F9014642
:102E20005846FDF73FFF01464046FDF731FE4FF0A3
:102E30007C51FDF737FFFEF711F903460120C9F871
:102E400018306C63BDE8F88F0026E5E7881600208F
:102E500083689B695A428A4202DC8B42A8BF816325
:102E6000704700BF70B5836882B00446D3E902059D
:102E70000191FDF7C3FE0199064641B1E068401B90
:102E8000FDF7BCFE3146FDF7C1FF02B070BD6069C1
:102E9000401BFDF7B3FE3146FDF7B8FF02B070BD31
:102EA00038B50446C069FDF7A9FEA36805469868D1
:102EB000FDF7A4FE01462846FDF7A8FF38BD00BF78
:102EC00008B5006BFDF79AFE0149FDF7EBFE08BD62
:102ED0006F12833A83685B695A428A42B8BF0A46D6
:102EE0008B42A8BF1346C363704700BF80F84110F0
:102EF000704700BF00238365C371704700281BDB48
:102F0000344B984201DC00207047334B98422FDB52
:102F1000324B984247DAA0F59E10A0F5B150C0EBB5
:102F2000C000C0EB0010001500F59670B0F5D77F1B
:102F3000A8BF4FF4D7707047294B9842E3DAA3F546
:102F40009213A3F57863984220DA264B984235DB3A
:102F500000F59E1000F5B150C0EBC000C0EB0010B2
:102F60000015A0F59670204B9842B8BF18467047E0
:102F70004FF48373A0F5C330A03803FB00F00015B5
:102F8000B0F5D77FA8BF4FF4D77070474FF4837365
:102F900000F5C330A03003FB00F0134B001598423E
:102FA000B8BF184670473423A0F50610A0F58E5020
:102FB00003FB00F0001500F5C370B7E7342300F5FC
:102FC000061000F58E5003FB00F00015A0F5C3704D
:102FD000C9E700BF9F86010020D61300C0912100E1
:102FE0006179FEFF416EDEFF52FEFFFF70B5D0E952
:102FF00050250446EB88D0688AB01061D360181A57
:10300000A368B0EB630F40F30981C01AD369D4F809
:1030100088C0C3EB43130CFB003351699161014439
:10302000106A51610344581103F01F03C2E90703FA
:10303000FFF764FF536C01445B1A916292F85010E1
:103040005062D36201BB2B6828469B689847C8B181
:10305000D4F84401A14A0368DB6893420FD1D4F845
:103060004031DA79002A00F07681002019685A7917
:10307000C1E90900C1E91500C861C86416E09847B4
:103080000028ECD0D4F840210023D4F8480111687E
:103090000568AD68C1E90933C1E91533CB61CB647B
:1030A00053651363A847D4F840315A79197991428E
:1030B00003D00122597183F85220986BA269904283
:1030C0003DDC524290423ADBD86B626990423BDD74
:1030D000DA6393F85000D8B193F84000C0B90020EB
:1030E0001D6883F85200C5E90900C5E91500E861CB
:1030F000E8649865D871481E072836D8DFE810F0D4
:103100000D010401E5004D010D010401E50041013F
:1031100093F85100002840F0878093F8520000286F
:10312000DDD14A1E072A00F2ED80DFE812F096009A
:10313000A400120000019600A4001200DF00D86B6A
:103140009A6362699042C3DC5542A842B8BFDD630E
:10315000BFE7D96B04F19000FFF78EFAD4F8403145
:10316000D4F8900059796269D864B3F8400002EB52
:10317000420CA3F850005A48C2EB4C1280FB02C02C
:10318000D217C2EB601218681D6B90F8600085EAD8
:10319000E57601F0FB01A6EBE576D8B1032977D0FF
:1031A000964224DBD869DFF83CC180EAE075A5EBE4
:1031B000E075A0688CFB00ECC017C0EB6C0085428A
:1031C00008DA9D6D4848854200F2F180D4F88C0001
:1031D0002844986503290CD096420ADBDA6D4249EF
:1031E0008A4240F2B380012283F8602005E0002289
:1031F0009A650022DA6583F86020D4F844010368F8
:103200009B689847D4F8403120B15A7992B99A71A5
:103210000AB070BD05229A710AB070BD5942B0EB78
:10322000610FB8BFC018F1E693F8410000283FF4E1
:1032300056AF72E7D979002943D193F8601000297D
:1032400040F0DD80012A00F0E780022A00F01681BC
:10325000032A00F019810122D9E7596B04F1B80063
:10326000FFF7A4FAD4E92E12D4F84031C3E91112C1
:103270005979626979E7996B04F1A400FFF742FA82
:10328000D4F84031D4F8A4006269597998646CE7A5
:10329000002D85D0D969134D81EAE170A0EBE17072
:1032A000A16885FB01C5C917C1EB65018842A0DA99
:1032B000996D0D4881427AD8D4F88C200A449A65D9
:1032C00097E704229A710AB070BD196B04F190005F
:1032D000FFF7CEF9D4F84031597922E7A12B000845
:1032E0001F85EB51676666663F420F00596B04F11C
:1032F000E400FFF785FBD4E93912D4F84031C3E983
:1033000011125979626930E7D96904F1A400FFF715
:10331000F5F9D4F84031597903E7996ADA6904F18B
:10332000B800FFF73DFAD4F840315979F9E6D3E90E
:103330000D1204F58270FFF783FBD4E94112D4F833
:103340004031C3E91112597962690EE7D4F88C1043
:103350001144D96551E793F85110002951D0D4F8A0
:1033600048011968C1E90922C1E91522CA61CA6484
:103370000168C9685A651A638847D4F840315A7998
:1033800094E6DA69996A04F1E400FFF733FBD4F8B4
:1033900040319A6A59795A63C3E6996ADA6904F541
:1033A0008270FFF745FBD4F840315979B9E64FF008
:1033B000010C4FF0080E00253B4904A8496883F82A
:1033C00007C08DF80810C90141F07C0104910DEB94
:1033D0000E010192CDE905558DF809C0CDF820E028
:1033E00007950995CDF80A50ADF80E50FEF7C4FACE
:1033F000D4F84031019A597901F0FB01EAE6032241
:1034000005E75A79082A3FF651AEDFE802F02E0BA5
:1034100026140B0B26140B00586C596B88423AD0BB
:103420000222F4E6D3E911121846FFF721FCD4F882
:1034300040315A793AE6DA6C9868002A996A1A6338
:103440002EDD45682944D0F84801596503685B685A
:103450009847D4F840315A7928E61846996CFFF716
:10346000A9FBD4F840315A7920E6D4F84801036822
:103470009B689847D4F840315A7917E6986C996B55
:10348000884208BF0122C2E6DA6CD96B8A420CBFBF
:1034900001220222BBE6996C002918BF0222B6E67F
:1034A0001CBF4568491BCEE78816002010B50446AE
:1034B000D0F8440103685B689847134A137823B92E
:1034C0002046BDE81040FFF791BDA068E168D4F840
:1034D000443100EBD07CB1EB6C0FDB8805DA01EBFB
:1034E0006C01994206DA1B1A04E0A1EB6C019942C7
:1034F000C8BF1B180020D4F840111070C1E9033375
:10350000C1E9053310BD00BF040000201D4A92F838
:10351000341001B1D1680023D0F808C00268DCF88B
:103520000CC0C0E90333C0E90533C0E90733C0E983
:103530000933C0E90E33C0E91133C0F834C001715A
:10354000C362A0F84030C364A0F8503080F8523015
:103550004365036383654371C380C36580F860304E
:10356000C2E90433C2E90633C2E90833C2E90A33C7
:10357000C2E91033C2E91233C2E91433C2E9163387
:10358000704700BF8816002082684369916893FBEA
:10359000F1F001FB1033D360704700BF016070474A
:1035A00083682DE9F043D3F844310446DD6800F127
:1035B00036024FEA650E00F5E47032F8023FB2F8C9
:1035C00092C1A3EB0C010029B8BF494263448E4568
:1035D0004FEA630304DA9E45D4BFA3EB0E037344A2
:1035E00082421380E9D1228FB4F8C6316942D31ADE
:1035F0009E45B8BF5B1BB3EB610FB8BF5B19002BD7
:103600004FEA610833D0CCBF012300232375494B17
:103610004FEAE57983FB0513C9EBA31606EB4606D3
:1036200006EBD676C9EBE3194FEA660664DD114670
:1036300004F1380004F5E37705E0CC4513DB002BFB
:1036400015DD874217D00B4630F8021FCB1A9E4576
:10365000B8BF5B1B9845C8BF5B1983EAE37CACEB42
:10366000E37CB445E9DD02232373BDE8F083012345
:103670002373BDE8F0834FF0000CC82761462D4E40
:10368000013D104601F1C903A6FB03E2920907FBC5
:1036900012331C3334F81320824204DA281AC4E9A6
:1036A000D7100CF1010C0131C829EAD1BCF1010F8E
:1036B00020D00323DCE700264FF0C80C31461D4F15
:1036C000013D104601F1C903A7FB03E292090CFB7F
:1036D00012331C3334F813208242A5EB0203C8BF17
:1036E000C4E9D71301F10101C8BF0136C829E8D1E7
:1036F000012EDED10023BBE7104604F1380104F5AA
:10370000E37C05E0B945AEDC002BB0DA8C45D2D0C5
:10371000034631F8020FC31A9E45B8BF5B1B98459C
:10372000C8BF5B1983EAE377A7EBE377BE42E9DA28
:1037300099E700BF1F85EB512DE9F04F04468368E0
:1037400081B0D3F8440103685B689847637B062B1C
:1037500017D8DFE803F02404385E778B1900A368DC
:103760002169D3F8480102310268526815461A6986
:103770002161A847A36822699B68B2EB430F00F060
:10378000A18001B0BDE8F08F00221146A368D3F8F4
:10379000480103685B6801B0BDE8F04F1847237922
:1037A000002BEED0A3682169D3F848011A69036899
:1037B0005B68984700214FF48073A2689268E182A9
:1037C0002261A381DDE7A2682169D2F804E0B1FBA0
:1037D000FEF30EFB1313002B71D1E08AD2F844C123
:1037E000431CBCF804509BB20C30102BE38224F82D
:1037F00010506BD0D2F84801126903685B68984793
:10380000A26823699268B3EB420FBAD903236373AA
:10381000B7E7A3682169D3F848010131026852680B
:1038200015461A692161A847A2682169D2E90132C7
:1038300003EB830302EB4303B1EB430FA1D104235A
:1038400063739EE7A3682169D3F8480101390268D0
:10385000526815461A692161A847A26823699268CF
:10386000B3EB420F8DD1052363738AE7A268216908
:10387000D2F804E0B1FBFEF30EFB1313E3B9E08AC8
:10388000D2F844C1431CBCF804509BB20C30102B3E
:10389000E38224F8105000F0F580D2F84801126954
:1038A00003685B689847A36822699B689A42BFF4E3
:1038B00068AF0623637364E701392161EDE70131E5
:1038C000216197E70222236162735AE7DCF80CC09A
:1038D000208B658BCCF100035F102B1AB3EB6C0FC0
:1038E000D4BF2E46A5EB0C069F42A38BA9464FEAF8
:1038F0006C08C8BF05EB0C061D1AA845ACBF99465D
:10390000A3EB0C09AF42C8BF0CEB0309E38B06EB3A
:10391000000A1D1AA845CA44ACBF9946A3EB0C097E
:10392000AF42C8BF0CEB0309238CCA441D1AA8453B
:10393000ACBF9946A3EB0C09AF42C8BF0CEB03091F
:10394000638CCA441D1AA845ACBF9946A3EB0C0969
:10395000AF42C8BF0CEB0309A38CCA441D1AA8458B
:10396000ACBF9946A3EB0C09AF42C8BF0CEB0309EF
:10397000E38CCA441D1AA845ACBF9946A3EB0C09B9
:10398000AF42C8BF0CEB0309238DCA441D1AA845DA
:10399000ACBF9946A3EB0C09AF42C8BF0CEB0309BF
:1039A000638DCA441D1AA845ACBF9946A3EB0C0908
:1039B000AF42C8BF0CEB0309A38DCA441D1AA8452A
:1039C000ACBF9946A3EB0C09AF42C8BF0CEB03098F
:1039D000E38DCA441D1AA845ACBF9946A3EB0C0958
:1039E000AF42C8BF0CEB0309238ECA441D1AA84579
:1039F000ACBF9946A3EB0C09AF42C8BF0CEB03095F
:103A0000638ECA441D1AA845ACBF9946A3EB0C09A6
:103A1000AF42C8BF0CEB0309A38ECA441D1AA845C8
:103A2000ACBF9946A3EB0C09AF42C8BF0CEB03092E
:103A3000E38ED144181A8045ACBF1E46A3EB0C069A
:103A40008742C8BF0CEB030606EB09031846002BA0
:103A5000B8BF03F10F000F334FEA2010C0F2EE8021
:103A60008445B8BFA0EB0C0093684FF0000CCB1A54
:103A7000B3FBFEF301311C3324F81300A4F816C085
:103A80002161B7E6DCF80CC0208B658BCCF100031C
:103A90005F102B1AB3EB6C0FD4BF2E46A5EB0C06B0
:103AA0009F42A38BA9464FEA6C08C8BF05EB0C06E2
:103AB0001D1AA845ACBF9946A3EB0C09AF42C8BF7D
:103AC0000CEB0309E38B06EB000A1D1AA845CA4458
:103AD000ACBF9946A3EB0C09AF42C8BF0CEB03097E
:103AE000238CCA441D1AA845ACBF9946A3EB0C0908
:103AF000AF42C8BF0CEB0309638CCA441D1AA8452A
:103B0000ACBF9946A3EB0C09AF42C8BF0CEB03094D
:103B1000A38CCA441D1AA845ACBF9946A3EB0C0957
:103B2000AF42C8BF0CEB0309E38CCA441D1AA84579
:103B3000ACBF9946A3EB0C09AF42C8BF0CEB03091D
:103B4000238DCA441D1AA845ACBF9946A3EB0C09A6
:103B5000AF42C8BF0CEB0309638DCA441D1AA845C8
:103B6000ACBF9946A3EB0C09AF42C8BF0CEB0309ED
:103B7000A38DCA441D1AA845ACBF9946A3EB0C09F6
:103B8000AF42C8BF0CEB0309E38DCA441D1AA84518
:103B9000ACBF9946A3EB0C09AF42C8BF0CEB0309BD
:103BA000238ECA441D1AA845ACBF9946A3EB0C0945
:103BB000AF42C8BF0CEB0309638ECA441D1AA84567
:103BC000ACBF9946A3EB0C09AF42C8BF0CEB03098D
:103BD000A38ECA441D1AA845ACBF9946A3EB0C0995
:103BE000AF42C8BF0CEB0309E38ED144181A8045DD
:103BF000ACBF1E46A3EB0C068742C8BF0CEB030606
:103C000006EB09031846002BB8BF03F10F000F3372
:103C10004FEA201014DB8445B8BFA0EB0C0093687A
:103C20004FF0000CCB1AB3FBFEF3013904EB430356
:103C3000A3F8CA01A4F816C021612EE6604413E778
:103C40006044ECE7437B062B00D070472DE9F04140
:103C500004468368D3F8480103689B689847204668
:103C6000FFF79EFC237BABB1A368D3F8443100255A
:103C70002268204692681D7290470121A268237B2A
:103C8000D2F84021D17165732571002B00F01A81A3
:103C9000BDE8F081226820469268C4F864339047FA
:103CA000236820461B689847A368D4F85C131A68F9
:103CB000207D01EB0208474600285FD041454DDCDE
:103CC0000E46354601369019B0FBF2F702FB17009D
:103CD0001C3034F810705019B0FBF2FC02FB1C00D1
:103CE0001C3034F81020BF1AD3F84421D268B7EB47
:103CF000620FC8BFBF1A5042B7EB600FB8BFBF1802
:103D0000A94200F00581A84500F0AD80002FC8BF92
:103D10004FF000081DDDD3E901C208FB0CF191FB57
:103D2000F7F105FB0C111144B1FBF2FC02FB1C1175
:103D300023682046DB6889B29847D4F8643308F1D9
:103D400001080133B845C4F86433A368E3D1D4F85B
:103D50005C131A6801EB0208B045B2DA236820460A
:103D60005B689847A068D4F86413D0F84431DA68E7
:103D7000914200F09C800422227378E78242EDDBBE
:103D800002EB0806B6FBF2FC08F10105501902FB34
:103D90001C66B0FBF2FC02FB1C001C361C3034F825
:103DA000102034F81660B61AD3F84421D268B6EB66
:103DB000620FC8BFB61A5042B6EB600FB8BFB61854
:103DC000474500F0838041452AD0002EC8BF002718
:103DD00001DC1DE0A368D3E9011207FB01FC9CFB99
:103DE000F6FC01FB0521A1EB0C01B1FBF2FC02FB8F
:103DF0001C1123682046DB6889B29847D4F86433E5
:103E000001370133B742C4F86433E3D1D4F85C130B
:103E100008F1FF384145A1DCA3681A688F18AFE7A5
:103E2000D4F86023002AF3DD002700E0A368D3E97B
:103E3000011207FB01FC9CFBF6FC01FB0521A1EB39
:103E40000C01B1FBF2FC02FB1C1123682046DB686D
:103E500089B201379847D4E9D8230133BA42C4F86C
:103E60006433E3DCD2E7D4F86023002A7FF771AF34
:103E70004FF00008D3E901C208FB0CF191FBF7F108
:103E800005FB0C111144B1FBF2FC02FB1C11236871
:103E90002046DB6889B208F101089847D4E9D823A5
:103EA00001334245C4F86433A368E3DC4FE7227B67
:103EB000002A7FF4DCAE0121D0F840011972C171F3
:103EC00062732271BDE8F04101F07EB9D4F86073ED
:103ED000B74201DB9CE7A368D3E9011307FB01FCB0
:103EE0009CFBF6FC01FB0531A1EB0C01B1FBF3FCE3
:103EF00003FB1C1122682046D26889B29047D4F88F
:103F0000643301370133B742C4F86433E3D17DE74A
:103F1000D4F8608347457FF71CAFD3E9012308FB42
:103F200002F191FBF7F105FB02111944B1FBF3F229
:103F300003FB121123682046DB6889B29847D4F846
:103F4000643308F1010801334745C4F86433A368BA
:103F5000E3D1FCE6407A7047704700BF70B54FF47C
:103F600003410446032600253E4BC36123682046D7
:103F70005B69984702462368E18B5B69204622848F
:103F80009847238CC2B242EA032292B202F00103A4
:103F900012F0020118BF01336084500784F8243006
:103FA00044BF013384F82430100744BF013384F840
:103FB0002430D00644BF013384F82430900644BF37
:103FC000013384F82430500644BF013384F8243090
:103FD000100644BF013384F82430D00544BF0133B8
:103FE00084F82430900544BF013384F82430500510
:103FF00044BF013384F82430100544BF013384F8F2
:104000002430D00444BF013384F82430900444BFEA
:10401000013384F82430500444BF013384F8243041
:10402000D00B1CBF013384F82430DB07228206D575
:10403000731E13F0FF06657510D0A18B96E7C1F3D0
:10404000400101200B469208628221756075A169CA
:10405000A28031F812006372E08070BD237D628A15
:10406000F5E700BF00830084007A704703681149B8
:104070001A6910B58A42044618D120465B689847F1
:104080000120E168207281B14FF6FF704FF0000C03
:10409000A369023B03EB410133F8022F824208BFC0
:1040A00084F808C08B42F7D1207A10BD904723686E
:1040B000E3E700BF593F000838B5836802680B4446
:1040C00004461268017983609047637983420FD078
:1040D0000546636968B100209847D4E90232216936
:1040E0009B1A8B428CBF0220032062699047657146
:1040F00038BD01209847A3686571E360F8E700BF09
:1041000038B503680D461B68017904469847656118
:10411000607138BD03681B68184700BF10B543685D
:1041200082B019444160052A00F2CE80DFE802F037
:10413000586103105C3640F201120023828103743F
:10414000837B013B032B10D8DFE803F079896958A2
:104150000122032382810374036801901B680122FA
:1041600000219847012301988373017E022923D0FF
:10417000032900F0848001290ED1436842699B1A0B
:10418000642B09D9036800221B680190984702221A
:10419000019843680276436102B010BD00220123FA
:1041A0008281037400220368114601901B689847BE
:1041B0000198017E0229DBD1436842699B1A642B76
:1041C000EAD9C37B027C0133DBB20168C3739A4234
:1041D000D1F800C06ED9012201901146E04762E09B
:1041E000002383810374DDE70022022382810374AC
:1041F000D8E70122002382810374ADE78368CB1ADC
:10420000B3F52F7FB1D9036801221B68019000210B
:10421000984701220198436882738360A5E7836809
:10422000CB1A642BA1D90022036811461B680190A8
:1042300098470422019843688273836095E78368F6
:10424000CB1A642B91D90022036811461B68019098
:1042500098470222019843688273836085E78368E8
:10426000CB1A642B81D9036801221B6801900021BD
:1042700098470322019843688273836075E7436817
:1042800042699B1AB3F57A7F86D94FF0000C027C05
:104290000368B2EB0C0280F80FC018BF01220121A5
:1042A0001B68019098470122019843680276436198
:1042B00002B010BD002201900121E04703220198C5
:1042C00043680276436167E7037B002B3FF46AAFE4
:1042D000437B002B7FF434AF3EE700BF4FF47A738B
:1042E00010B50F49044609780E4AB3FBF1F0126885
:1042F00082B0B2FBF0F000F079FF08B90F2C02D9C0
:10430000012002B010BD0246019021464FF0FF305F
:1043100000F01AFF044B01981C6002B010BD00BFF2
:10432000050000200000002008000020074A08B512
:104330001368032043F01003136000F0F3FE032022
:10434000FFF7CCFFFDF7E4FC002008BD0020024091
:10435000034A044B11681B780B441360704700BF7D
:10436000DC0C002005000020014B1868704700BFDE
:10437000DC0C002038B50446FFF7F6FF631C054649
:1043800002D0044B1B781C44FFF7EEFF401BA042F9
:10439000FAD338BD05000020002800F0AD8038B504
:1043A000836A0446002B6BD023689A68D50749D4EA
:1043B000A26AD20605D5A36A43F01003A3620120C6
:1043C00038BDA26A6168E06922F48852257B22F038
:1043D0000202014342F00202A26241EA4502A168E0
:1043E00094F814C0B1F5807F50D0A1F10100B0FA6B
:1043F00080F0BCF1010F4FEA50104FEA002058D076
:104400005D6825F46945284358609D683F48284009
:1044100010439860012947D00020D96A21F4700127
:104420000143D96299683A4B0B409A425BD0A36A28
:1044300023F0120343F01003A362E36A43F0010385
:10444000E362BCE79A6822F001029A60FFF78CFFF2
:10445000054623689A68D007AAD5FFF785FF401B59
:1044600002282368F6D99A68D107F3D5A36A43F0E6
:104470001003A362E36A43F00103E362A36A9AE7CD
:10448000C36280F82430FDF713F98DE7BCF1010F0A
:104490000ED058681D4920F4694040F4807058607F
:1044A0009868014011439960206901380005B4E71C
:1044B00008461DB3A56A45F02005A562E56A45F0EA
:1044C0000105E5625D68B1F5807F25F4694540EA44
:1044D000050058609D680D4805EA000040EA0200AA
:1044E000986097D1E0E70020E062A36A23F003031D
:1044F00043F00103A36238BD01207047A569013D67
:1045000040EA453040F40060DCE700BFFDF7E1FF22
:10451000FE0E1FFF704700BF436A9A6A12F0500FE9
:104520000FD19A6A196842F4007210B59A628A68CB
:1045300002F46022B2F5602F06D01846FFF7EAFFBA
:1045400010BD1B6A1B6B18471A7B002AF5D19A6AAB
:1045500022F480729A629A6AD204EED49A6A42F085
:1045600001029A62E9E700BF704700BF08B5406AE0
:10457000FFF7FAFF08BD00BF704700BF406A08B5EB
:10458000836A43F040038362C36A43F00403C36257
:10459000FFF7F2FF08BD00BF002330B583B00193E1
:1045A00090F82430012B73D0012380F82430024688
:1045B000D0F800C0D1E90003062B35D90C2B56D812
:1045C0001F25073BDCF8304003EB830300FA03FEB2
:1045D00005FA03F324EA030343EA0E03CCF8303070
:1045E00009288B6833D90724A0F10A0EDCF80C10D7
:1045F0000EEB4E0E03FA0EF304FA0EFE21EA0E0144
:104600000B43CCF80C30A0F11003012B2DD8324B0A
:104610009C4540D00120936A43F02003936200231D
:1046200082F8243003B030BD1F25013BDCF8344054
:1046300003EB830300FA03FE05FA03F324EA030302
:1046400043EA0E030928CCF834308B68CBD84FF0FE
:10465000070EDCF8101000EB400083400EFA00F06B
:1046600021EA00010B43CCF810300020D7E71F25CA
:104670000D3BDCF82C4003EB830300FA03FE05FA44
:1046800003F324EA030343EA0E03CCF82C30A7E734
:10469000022003B030BDDCF808301B02E5D4DCF8A2
:1046A0000830102843F40003CCF80830DDD10B4B60
:1046B0000B491B68A1FB03139B0C03EB83035B00FB
:1046C0000193019B002BD0D0019B013B0193019BE7
:1046D000002BF9D1C9E700BF0024014000000020F1
:1046E00083DE1B43002330B5026883B001939368D7
:1046F000D90727D41B4B04461B681B489168A0FBB5
:10470000030341F001019B0C91600193019B2BB1CC
:10471000019B013B0193019B002BF9D1FFF724FE84
:10472000236805469B68DA070CD4FFF71DFE401B83
:104730000228236803D99A6812F0010205D09B6809
:10474000DB07F2D5002003B030BD0120A36A84F856
:10475000242043F01003A362E36A0343E36203B03F
:1047600030BD00BF0000002083DE1B43F8B50446C7
:10477000424D0068A84216D0414B984213D094F89D
:104780002430012B18D00123204684F8243017460A
:104790000E46FFF7A7FF054688B1002384F82430B2
:1047A00001252846F8BD354B5B6813F4702FF7D10F
:1047B00094F82430012BE6D102252846F8BDA06AE2
:1047C00021682F4B20F4706020F0010040F48070CD
:1047D0009942A06243D0A36A23F48013A3624B687A
:1047E0005A0505D5A36A23F4405343F48053A362CA
:1047F00000206FF0020CA36A84F8240013F48053A5
:1048000018BFE36A206ADFF87CE018BF23F00603D4
:10481000E362C0F828E0DFF870E03B46C0F82CE027
:10482000DFF868E03246C0F830E0C1F800C0D1F8E7
:1048300008C04C314CF4807C41F844CC00F01EFDA3
:10484000236828469A6802F46022B2F5602F9A68BD
:104850000CBF42F4A00242F480129A60F8BDA3F5A6
:1048600080635A6812F4702FB5D0A26A42F48012A5
:10487000A2625B685B05BBD5B4E700BF00240140C2
:1048800000280140194500086D4500087D450008D5
:1048900038B503689A68D40701D4002038BD9A68F7
:1048A000044622F001029A60FFF75EFD2368054688
:1048B0009B68D807F1D502E09368DB07EDD5FFF7D9
:1048C00053FD431B022B2268F6D99368D907F3D511
:1048D0000120A36A43F01003A362E36A0343E36287
:1048E00038BD00BF002370B582B0019390F824302A
:1048F000012B5FD0012380F824300446FFF7C8FF66
:10490000054628B10023284684F8243002B070BD43
:10491000A36A314A23F4885323F0020343F00203CD
:10492000A3620220166801F045FDB6FBF0F67600A2
:104930000196019B2BB1019B013B0193019B002B35
:10494000F9D12046FFF7CEFE2268936843F00803B2
:104950009360FFF709FD22680646936818070BD598
:10496000FFF702FD831B0A2B226802D993681907FF
:1049700024D493681B07F3D4936843F00403936033
:10498000FFF7F2FC236806469B6858070BD5FFF734
:10499000EBFC831B0A2B226802D9936859070DD4BC
:1049A00093685B07F3D4A36A23F0030343F0010386
:1049B000A362A7E70225284602B070BD0125A36ABD
:1049C000284623F0120343F01003A362002384F867
:1049D000243002B070BD00BF0000002000287DD050
:1049E00038B590F820300446002B74D02268136844
:1049F00043F001031360FFF7B7FC054604E0FFF73F
:104A0000B3FC401B0A285DD823685A68D107F6D545
:104A10001A6822F002021A60FFF7A6FC054604E0BD
:104A2000FFF7A2FC401B0A284CD823685A6892075B
:104A3000F6D4227E0025012A1A684FF0010C0CBF23
:104A400042F0800222F080021A60627E2846012A2B
:104A50001A680CBF42F0400222F040021A60A27EA7
:104A6000012A1A680CBF42F0200222F020021A60CC
:104A7000E27E012A1A680CBF22F0100242F01002F6
:104A80001A60227F012A1A680CBF42F0080222F045
:104A900008021A60627F012A1A680CBF42F0040201
:104AA00022F004021A60D4E902210A4321690A4370
:104AB00061690A43616801390A43DA61656284F811
:104AC00020C038BD0522636A012043F400336362CD
:104AD00084F8202038BDFCF7E9FE87E70120704705
:104AE00090F820200346013A012A05D95A6A01208C
:104AF00042F480225A6270474FF0010C0368486903
:104B0000D3F8002210B542EA0C02C3F80022D3F811
:104B10001C4200F01F02D1F81CE00CFA02F224EA59
:104B2000020CC3F81CC2BEF1000F41D1D3F80CC275
:104B3000CC682CEA020CC3F80CC2B1F804C003EB39
:104B4000C0004CEA044CC0F840C28C68B1F800C008
:104B50004CEA044CC0F844C2886918BBD3F804027C
:104B600020EA0200C3F804020869A8B9D3F81402C5
:104B700020EA0200C3F81402096A012904D1D3F81B
:104B80001C120A43C3F81C22D3F80022002022F092
:104B90000102C3F8002210BDD3F814021043C3F879
:104BA0001402E9E7D3F804021043C3F80402DBE778
:104BB000BEF1010FD0D1D3F80CC20C684CEA020C44
:104BC000C3F80CC2B1F804C003EBC0004CEA044CBB
:104BD000C0F840C28C68B1F80CC04CEA044CC0F874
:104BE00044C2B9E738B590F820300446012B05D00F
:104BF000436A43F400234362012038BD0223026864
:104C000080F82030136823F001031360FFF7ACFB3A
:104C1000054604E0FFF7A8FB431B0A2B07D82368CF
:104C20005B6813F00103F5D11846636238BD0522B5
:104C3000636A43F40033636284F82020DCE700BF3A
:104C400010B590F820C01C460CF1FF3C0368BCF185
:104C5000010FD3F808E038D81EF0E05F4AD0CEF359
:104C6000016EBEF1030F36D0012000FA0EF0206075
:104C7000D1E9020CA0B340EA0C00D1F804C040EA2C
:104C8000CC000EF1180C4FEA0C1C43F80C0008691C
:104C900003EB0E1CCCF88401097D012905D1DCF859
:104CA000841141F48071CCF88411516803EB0E1328
:104CB000C3F88C1112680020C3F88821DCF8803119
:104CC00043F00103CCF8803110BD436A43F48023E4
:104CD0004362012010BD436A43F400034362F8E7D6
:104CE00008684CEA40500EF1180C4FEA0C1C43F8CF
:104CF0000C00CCE7436A43F400134362E9E700BFCA
:104D000090F820C00CF1FF3CBCF1010F73D830B516
:104D1000D0F800C051B9DCF80CE01EF0030F0AD146
:104D2000436A43F400134362012030BDDCF810E015
:104D30001EF0030FF4D00CEB011EDEF8B04104F0BE
:104D400004049460002C5CD0DEF8B041E4085460A8
:104D5000DEF8B0410CEB011C04F00204D460DEF874
:104D6000B44104F00F041461DEF8B441DEF8B4E19C
:104D7000DCF8B8514FEA1E4EC4F3072CC2F818C035
:104D8000C2F814E01D70026802EB0112D2F8B821DB
:104D9000120A5A70026802EB0112D2F8B821120C02
:104DA0009A70026802EB0112D2F8B821120EDA7082
:104DB000026802EB0112D2F8BC211A71026802EB00
:104DC0000112D2F8BC21120A5A71026802EB0112D8
:104DD000D2F8BC21120C9A71026802EB0112D2F8CF
:104DE000BC21120EDA71036881B9DA6842F0200240
:104DF000DA60002030BD436A43F48023436201201F
:104E00007047DEF8B041640D1460A1E71A6942F002
:104E100020021A61EDE700BF90F820200346013A16
:104E2000012A05D95A6A012042F480225A62704749
:104E30000268002053690B4353617047704700BFFD
:104E4000704700BF704700BF704700BF704700BF8A
:104E5000704700BF704700BF704700BF704700BF7A
:104E6000704700BF704700BF704700BF03682DE95F
:104E7000F0435C695F689A68D9681E690546B04668
:104E80009E6983B0B14614F0010625D0D60700F123
:104E900088804FF4005C4FF4804E0026D0050DD57D
:104EA0004FF480702B689860930500F1C180500525
:104EB00000F1DF80130540F1F7807646D0030BD573
:104EC0004FF480302B689860930300F1A480500366
:104ED00040F1D18046F40046230701D5C8065AD4D4
:104EE000620701D50B0776D4A00703D52B68DB68D2
:104EF000990777D1620602D518F0100F61D1A30689
:104F000002D518F0080F78D1E00603D52B681B698D
:104F100099075CD1A20301D5FB0667D4E00301D554
:104F2000390771D4220431D57B072A682CD509F0C2
:104F3000010314F4807F43EA060318BF1E46A70549
:104F400017D519F0020F14D0600546F0020604F4DC
:104F5000006377D519F0040F72D193B9042353601D
:104F60006B6A284633436B62FFF77EFF03B0BDE8F0
:104F7000F083610504F4006302D519F0040F5FD1DA
:104F800013B119F0700362D104235360002EE7D1EE
:104F900003B0BDE8F08310222B6846F40076DA6097
:104FA0009EE701269E6096073BD4530768D41607F8
:104FB00040F182804FF4405C4FF4A04E4FF4805695
:104FC0006CE710222B6846F480661A6197E7284642
:104FD000FFF742FF9EE708222B682846DA60FFF7BA
:104FE00039FF81E72846FCF7D9FC83E710222B68BC
:104FF00028465A60FFF734FF90E708222B682846BE
:105000001A61FFF72BFF7FE708222B6828465A60BA
:10501000FFF728FF86E728460091FFF713FF009966
:105020005AE7CDE90021FFF709FFDDE9002130E76C
:105030002846CDE90021FFF703FFDDE900213DE728
:1050400046F00406002B89D019F0700386D0402B5F
:1050500044D01CD8202B5CD0302B51D0102B38D111
:105060000421936946F0080623F0700393615160B0
:1050700076E7664622E7120325D546F480362BE70D
:105080004FF4205C4FF4904E4FF4006606E7502B2F
:105090002DD0602B1DD10421936946F4807623F036
:1050A0007003936151605BE72846CDE90021FFF76B
:1050B000CDFEDDE9002101E7CDE90021FFF7C4FEC7
:1050C000DDE90021E5E628460091FFF7C1FE0099E1
:1050D00002E7936923F07003936155E70421936914
:1050E00046F0400623F070039361516038E70421D5
:1050F000936946F0800623F07003936151602FE7B7
:105100000421936946F0200623F0700393615160F7
:1051100026E70421936946F0100623F0700393619B
:1051200051601DE74FF6FF0C06490302CA6803F4FD
:10513000E06302EA0C02134343F0BF6343F400331D
:10514000CB60704700ED00E0164B00B5DB68C3F3A1
:105150000223A3F1030CBCF1040F19D84FF0FF3E5A
:10516000C3F107030EFA03F3DB430EFA0CFE22EA47
:105170000E02194001FA0CF1114300284FEA011107
:105180000ADB00F1604000F5614080F8001300BDCB
:1051900000220F239446ECE7034B00F00F00C318E6
:1051A000197600BD00ED00E0FCEC00E0002807DB14
:1051B000012300F01F01034A40098B4042F82030D0
:1051C000704700BF00E100E0BFF34F8F0549064B79
:1051D000CA6802F4E0621343CB60BFF34F8F00BF95
:1051E000FDE700BF00ED00E00400FA050138B0F172
:1051F000807F01D3012070474FF0E02300224FF061
:10520000F00C07215861034880F823C09A611046CA
:105210001961704700ED00E038B3034605C810B5CA
:105220004FF4807E4FF0000C9968DC680A43104907
:105230002243104C4118A4FB01410909890019645B
:105240001969DC690A4359690A4399690A43016883
:1052500022436FF30D110A430749D9630260A3F893
:1052600020E06046C3F838C010BD0120704700BF81
:10527000F8FFFDBFCDCCCCCC0000024090F820C0A0
:10528000BCF1010F40D010B596461A46012390F8A4
:1052900021C080F820309C4504D0002380F82030C5
:1052A000022010BD022380F821300023046C8363A8
:1052B00003680CFA04F4D3F800C02CF0010CC3F816
:1052C00000C0D0F83CC0CCF804405A604268102AB4
:1052D000C26A0BBFC3F808E09960D960C3F80CE05C
:1052E0004AB11A6842F00E021A601A68002042F0B1
:1052F00001021A6010BD1A6822F004021A601A68CE
:1053000042F00A021A60F0E70220704790F821206C
:105310000346022A06D004229A630022012083F861
:10532000202070474FF0010C1A680020116821F00E
:105330000E011160116821F001011160D3E90F1213
:105340000CFA02F24A60002283F821C083F8202080
:10535000704700BF08B590F821200346022A03D009
:10536000042201209A6308BD02681C481168824229
:1053700021F00E011160116821F00101116021D0AE
:1053800017498A421CD014318A421DD014318A42F6
:105390001DD014318A421DD014318A4214BF4FF0FF
:1053A00080724FF480124FF48070DFF838C0596B70
:1053B000CCF80420188409B118468847002008BD9D
:1053C0001022F0E70122EEE74FF48072EBE74FF492
:1053D0008052E8E74FF48032E5E700BF0800024062
:1053E0001C00024000000240042210B5C46B016C96
:1053F000D4F800C003688A4012EA0C0FD3F800E02A
:1054000020D01EF0040F1DD01A68910603D41A682C
:1054100022F004021A60414A93425FD01432934250
:1054200065D0143293426CD0143293426FD0143250
:10543000934261D01432934214BF4FF080624FF414
:1054400080024CE002228A4012EA0C0F23D01EF0A8
:10545000020F20D01A68920606D401211A6822F0A1
:105460000A021A6080F821102C4A93422DD014327F
:10547000934244D01432934246D01432934238D0EF
:105480001432934246D01432934214BF4FF000724C
:105490004FF400121AE008228A4012EA0C0F1CD0C6
:1054A0001EF0080F19D01A684FF4807C22F00E020B
:1054B0001A600123026B03FA01F161608363A0F8B3
:1054C00020C052B1BDE81040104702220021144C08
:1054D000836A626080F8201033B910BD042210493D
:1054E000C36A4A60002BF8D0BDE81040184740223C
:1054F000F5E74FF40052E9E74FF48022EFE720226E
:10550000E4E74FF48062EAE74FF40072DEE74FF41D
:105510008042E4E74FF40032D8E700BF08000240C1
:10552000000002402DE9F04FDFF8BC9183B099F8FC
:105530001840012C00F0CA809A4601238846934601
:10554000064689F81830FEF70FFF4CF25035074633
:10555000664C04E0FEF708FFC01BA8425DD8E36874
:10556000DA07F7D4E3689B0644BF2023E3605F4B70
:10557000DA68D70658D4DA69D50755D4DF6817F04A
:10558000040751D1012E03D0022E14BF0426022697
:1055900008EB46034CF25036544C0193C7F12001FE
:1055A0000AFA01F12BFA07F30B430021A7F12002BD
:1055B000C9F81C102AFA02F21343226942F00102D0
:1055C0002261A8F80030FEF7CFFE054604E0FEF7A2
:1055D000CBFE401BB0421CD8E368D907F7D4E36880
:1055E0009A0644BF2023E360E368DB063ED4E36908
:1055F000DD073BD4E06810F0040037D1236908F1DF
:10560000020823F001032361019B10379845C5D19F
:1056100004E0236923F0010323610320002389F8B8
:10562000183003B0BDE8F08F304BDB6813F0100387
:1056300050D104212D4AD268540706D50B46D9F81B
:105640001C2042F00102C9F81C20284AD169C80771
:1056500009D5D9F81C1041F00401C9F81C10D16912
:1056600021F00101D161214AD3602BE01F4BDA68A0
:1056700012F0100228D014211022D9F81C3043F067
:105680000203C9F81C30194BDB68580706D50A46D7
:10569000D9F81C3043F00103C9F81C30134BD96909
:1056A000C90709D5D9F81C1041F00401C9F81C102C
:1056B000D96921F00101D9610C4BDA601A6922F035
:1056C00001021A610120A9E70421DCE7022003B0EE
:1056D000BDE8F08FD9F81C20142142F002021023FB
:1056E000C9F81C20A6E700BFE00C00200020024003
:1056F000064B186910F0800006D00549054A59602C
:105700005A601869C0F3C010704700BF0020024003
:1057100023016745AB89EFCD034A0020136943F0AD
:1057200080031361704700BF0020024010B504469B
:1057300082B0FEF719FE621C10D0002C4FD001463B
:10574000294AD368DB070DD50191FEF70DFE0199BB
:10575000254A401A8442F4D2032014E0224AD36836
:10576000DC07FCD4204BDA68910644BF2022DA60C3
:105770001D4BDA68D20608D4DA69D40705D4D86894
:1057800010F0040001D102B010BD174BDB6813F01C
:1057900010031CD10421144AD268500705D50B46CA
:1057A0001249CA6942F00102CA610F4AD169C907A8
:1057B00008D50E48C16941F00401C161D16921F0E9
:1057C0000101D1610120084AD36002B010BD074831
:1057D0001421C269102342F00202C261DBE7024BCE
:1057E000DB68D807B8D4BDE700200240E00C0020F9
:1057F0002DE9F8432C4E337E012B52D00123337612
:1058000003688046022B89464CF250302ED0FFF7B9
:105810008DFF074668BB4FF0FF33C9F80030D8E969
:10582000025305EB83239D4223D2204C07E005F56C
:105830008065D8E9023203EB8223AB421AD9F761C3
:1058400023694CF2503043F0020323616561236900
:1058500043F040032361FFF769FF236923F002034C
:1058600023610028E3D0C9F8005003E0FFF75EFF92
:1058700020B1012000233376BDE8F8830B4CF061A2
:1058800023694CF2503043F004032361236943F051
:1058900040032361FFF74AFF236923F004032361D8
:1058A000E8E70220BDE8F883E00C00200020024079
:1058B0002DE9F04F0C6883B0002C00F0B980B94B93
:1058C000984200F0E380002201250F2792461346FC
:1058D000DFF8D48206E0013334FA03F602F1040261
:1058E00000F0A68005FA03F636EA040E06EA040C78
:1058F000F1D14C68122C00F2AF80122C16D8DFE8E0
:1059000014F0BE001300A700A40115001500150037
:1059100015001500150015001500150015001500DF
:1059200015001500A3009F00D1F80CA0BCF1FF0FDB
:1059300099BF8646164600F1040EA2F12006DEF855
:10594000004007FA06F924EA09040AFA06F6344385
:10595000CEF800404C68E60070D5D8F8186003F027
:10596000030946F00106C8F81860D8F818604FEA35
:10597000890906F001060196019E23F0030606F14F
:10598000804606F58036D6F808E007FA09FB2EEACD
:105990000B0EDFF818B2584500F03781DFF810B26F
:1059A000584500F04481DFF80CB258450CBF4FF069
:1059B000030B4FF0040B0BFA09F949EA0E0EC6F877
:1059C00008E0DFF8F4E114F4803FDEF8006014BF73
:1059D00046EA0C0626EA0C06CEF80060DFF8D8E1AD
:1059E00014F4003FDEF8046014BF46EA0C0626EA11
:1059F0000C06CEF80460DFF8C0E114F4801FDEF876
:105A0000086014BF46EA0C0626EA0C06CEF80860C9
:105A1000694E14F4001FF4680DD044EA0C04F460DD
:105A20000C68013334FA03F602F104027FF45AAF32
:105A300003B0BDE8F08F24EA0C04F4600C684AE778
:105A4000CC6804F10C0A71E7CC6804F1040A6DE734
:105A5000CC6804F1080A69E7DFF860E174450ED00C
:105A600000F2DA80AEF5801E744508D00EF5702E77
:105A7000744504D0AEF5801E74457FF457AF8C6832
:105A8000002C40F0DB804FF0040A4FE74FF0000994
:105A90006FF01F054FF0010C4FF00F084B46DFF879
:105AA00008E1474F05E0013334FA03F205F104053C
:105AB000BED00CFA03F232EA040A04EA0206F2D17A
:105AC0004C68122C00F2C480122C16D8DFE814F0B7
:105AD000D2001300DF00F4001500150015001500BA
